:100000000C9461000C947E000C947E000C947E0095
:100010000C947E000C947E000C947E000C947E0068
:100020000C947E000C947E000C947E000C947E0058
:100030000C947E000C947E000C947E000C947E0048
:100040000C949E000C947E000C947E000C947E0018
:100050000C947E000C947E000C947E000C947E0028
:100060000C947E000C947E00000000002400270009
:100070002A0000000000250028002B0000000000DE
:1000800023002600290004040404040404040202DA
:100090000202020203030303030301020408102007
:1000A0004080010204081020010204081020000012
:1000B0000007000201000003040600000000000029
:1000C000000011241FBECFEFD8E0DEBFCDBF11E08E
:1000D000A0E0B1E0E6E1F4E002C005900D92A030AE
:1000E000B107D9F711E0A0E0B1E001C01D92A9303D
:1000F000B107E1F70E94F7010C9406020C9400008E
:1001000082E061E00E949B0182E060E00E94BF010A
:10011000089582E060E00E94BF0168EE73E080E035
:1001200090E00E940C0182E061E00E94BF0164E661
:1001300070E080E090E00E940C0108951F920F9201
:100140000FB60F9211242F933F938F939F93AF93EA
:10015000BF938091040190910501A0910601B09197
:100160000701309108010196A11DB11D232F2D5FBC
:100170002D3720F02D570196A11DB11D20930801A8
:100180008093040190930501A0930601B0930701A9
:100190008091000190910101A0910201B0910301B1
:1001A0000196A11DB11D8093000190930101A093C0
:1001B0000201B0930301BF91AF919F918F913F9145
:1001C0002F910F900FBE0F901F9018959FB7F89426
:1001D00020910001309101014091020150910301F1
:1001E00086B5A89B06C08F3F21F02F5F3F4F4F4F32
:1001F0005F4F9FBF542F432F322F2227280F311DCF
:10020000411D511D82E0220F331F441F551F8A9547
:10021000D1F7B901CA010895EF92FF920F931F938E
:10022000CF93DF937B018C010E94E600EB010FC0AE
:100230000E94E6006C1B7D0B83E0683E780738F077
:100240000894E108F10801091109C851DC4FE114D3
:10025000F1040105110561F7DF91CF911F910F9115
:10026000FF90EF900895789484B5826084BD84B542
:10027000816084BD85B5826085BD85B5816085BDA1
:10028000EEE6F0E0808181608083E1E8F0E01082BA
:10029000808182608083808181608083E0E8F0E0FB
:1002A000808181608083E1EBF0E0808184608083E5
:1002B000E0EBF0E0808181608083EAE7F0E080811C
:1002C000846080838081826080838081816080837C
:1002D0008081806880831092C1000895833071F01E
:1002E000843028F48130A1F0823021F514C08630AA
:1002F000B1F08730D1F08430E9F404C080918000FF
:100300008F7703C0809180008F7D80938000089557
:1003100084B58F7702C084B58F7D84BD08958091A8
:10032000B0008F778093B00008958091B0008F7DEA
:100330008093B000089590E0FC01E656FF4F2491B1
:10034000FC01EA57FF4FE491EE23C1F0F0E0EE0F1D
:10035000FF1FE859FF4F85919491DC01662341F41A
:100360009FB7F8948C91209582238C939FBF08951A
:100370009FB7F8948C91822B8C939FBF08950F9315
:100380001F93DF93CF930F92CDB7DEB7282F30E0C6
:10039000F901E255FF4F8491F901E656FF4F1491A0
:1003A0002A573F4FF90104910023D9F0882321F007
:1003B00069830E946E016981E02FF0E0EE0FFF1F5C
:1003C000EE58FF4F85919491DC019FB7F894662316
:1003D00021F48C911095812302C08C91812B8C93F8
:1003E0009FBF0F90CF91DF911F910F910895CF93F1
:1003F000DF930E9433010E948000C0E0D0E00E94A1
:1004000089002097E1F30E940000F9CFF8940C9442
:060410000902F894FFCF81
:00000001FF
